{
  "contractName": "Exchange",
  "abi": [
    {
      "inputs": [
        {
          "internalType": "address",
          "name": "_tokenAddress",
          "type": "address"
        }
      ],
      "stateMutability": "nonpayable",
      "type": "constructor"
    },
    {
      "inputs": [],
      "name": "getTotalSupplyOfToken",
      "outputs": [
        {
          "internalType": "uint256",
          "name": "",
          "type": "uint256"
        }
      ],
      "stateMutability": "view",
      "type": "function",
      "constant": true
    },
    {
      "inputs": [],
      "name": "getTokenAddress",
      "outputs": [
        {
          "internalType": "address",
          "name": "",
          "type": "address"
        }
      ],
      "stateMutability": "view",
      "type": "function",
      "constant": true
    },
    {
      "inputs": [
        {
          "internalType": "uint256",
          "name": "_tokenAmount",
          "type": "uint256"
        }
      ],
      "name": "addLiquidity",
      "outputs": [],
      "stateMutability": "payable",
      "type": "function",
      "payable": true
    },
    {
      "inputs": [],
      "name": "getTokenReserve",
      "outputs": [
        {
          "internalType": "uint256",
          "name": "",
          "type": "uint256"
        }
      ],
      "stateMutability": "view",
      "type": "function",
      "constant": true
    },
    {
      "inputs": [],
      "name": "getEtherReserve",
      "outputs": [
        {
          "internalType": "uint256",
          "name": "",
          "type": "uint256"
        }
      ],
      "stateMutability": "view",
      "type": "function",
      "constant": true
    },
    {
      "inputs": [
        {
          "internalType": "uint256",
          "name": "_inputEthAmount",
          "type": "uint256"
        },
        {
          "internalType": "uint256",
          "name": "EthReserve",
          "type": "uint256"
        },
        {
          "internalType": "uint256",
          "name": "tokenReserve",
          "type": "uint256"
        }
      ],
      "name": "getTokenAmount",
      "outputs": [
        {
          "internalType": "uint256",
          "name": "",
          "type": "uint256"
        }
      ],
      "stateMutability": "pure",
      "type": "function",
      "constant": true
    },
    {
      "inputs": [
        {
          "internalType": "uint256",
          "name": "_inputTokenAmount",
          "type": "uint256"
        },
        {
          "internalType": "uint256",
          "name": "tokenReserve",
          "type": "uint256"
        },
        {
          "internalType": "uint256",
          "name": "EthReserve",
          "type": "uint256"
        }
      ],
      "name": "getEtherAmount",
      "outputs": [
        {
          "internalType": "uint256",
          "name": "",
          "type": "uint256"
        }
      ],
      "stateMutability": "pure",
      "type": "function",
      "constant": true
    },
    {
      "inputs": [],
      "name": "changeEtherToToken",
      "outputs": [],
      "stateMutability": "payable",
      "type": "function",
      "payable": true
    },
    {
      "inputs": [
        {
          "internalType": "uint256",
          "name": "_inputTokenAmount",
          "type": "uint256"
        }
      ],
      "name": "changeTokenToEther",
      "outputs": [],
      "stateMutability": "nonpayable",
      "type": "function"
    }
  ],
  "bytecode": "0x60806040523480156200001157600080fd5b506040516200126438038062001264833981810160405281019062000037919062000108565b600073ffffffffffffffffffffffffffffffffffffffff168173ffffffffffffffffffffffffffffffffffffffff161415620000aa576040517f08c379a0000000000000000000000000000000000000000000000000000000008152600401620000a19062000161565b60405180910390fd5b806000806101000a81548173ffffffffffffffffffffffffffffffffffffffff021916908373ffffffffffffffffffffffffffffffffffffffff1602179055505062000210565b6000815190506200010281620001f6565b92915050565b600060208284031215620001215762000120620001c8565b5b60006200013184828501620000f1565b91505092915050565b60006200014960198362000183565b91506200015682620001cd565b602082019050919050565b600060208201905081810360008301526200017c816200013a565b9050919050565b600082825260208201905092915050565b6000620001a182620001a8565b9050919050565b600073ffffffffffffffffffffffffffffffffffffffff82169050919050565b600080fd5b7f616464726573732830292063616e6e6f74206265207573656400000000000000600082015250565b620002018162000194565b81146200020d57600080fd5b50565b61104480620002206000396000f3fe6080604052600436106100865760003560e01c8063ae0f591a11610059578063ae0f591a1461013a578063af35f67f14610163578063c4a862e4146101a0578063c5d53f00146101cb578063f1d9f88b146101d557610086565b806310fe9ae81461008b5780632be7d648146100b657806351c6590a146100f357806381b0b68a1461010f575b600080fd5b34801561009757600080fd5b506100a0610200565b6040516100ad9190610bfb565b60405180910390f35b3480156100c257600080fd5b506100dd60048036038101906100d89190610ac6565b610229565b6040516100ea9190610cf6565b60405180910390f35b61010d60048036038101906101089190610a6c565b6102a4565b005b34801561011b57600080fd5b506101246105ab565b6040516101319190610cf6565b60405180910390f35b34801561014657600080fd5b50610161600480360381019061015c9190610a6c565b6105b3565b005b34801561016f57600080fd5b5061018a60048036038101906101859190610ac6565b610756565b6040516101979190610cf6565b60405180910390f35b3480156101ac57600080fd5b506101b56107d1565b6040516101c29190610cf6565b60405180910390f35b6101d3610877565b005b3480156101e157600080fd5b506101ea61094f565b6040516101f79190610cf6565b60405180910390f35b60008060009054906101000a900473ffffffffffffffffffffffffffffffffffffffff16905090565b60008082856102389190610db4565b9050600085856102489190610d2d565b90506000811161028d576040517f08c379a000000000000000000000000000000000000000000000000000000000815260040161028490610cb6565b60405180910390fd5b80826102999190610d83565b925050509392505050565b60008060009054906101000a900473ffffffffffffffffffffffffffffffffffffffff1673ffffffffffffffffffffffffffffffffffffffff166370a08231336040518263ffffffff1660e01b81526004016103009190610bfb565b60206040518083038186803b15801561031857600080fd5b505afa15801561032c573d6000803e3d6000fd5b505050506040513d601f19601f820116820180604052508101906103509190610a99565b11610390576040517f08c379a000000000000000000000000000000000000000000000000000000000815260040161038790610c76565b60405180910390fd5b600061039a61094f565b14156104685760008054906101000a900473ffffffffffffffffffffffffffffffffffffffff1673ffffffffffffffffffffffffffffffffffffffff166323b872dd3330670de0b6b3a7640000856103f29190610db4565b6040518463ffffffff1660e01b815260040161041093929190610c16565b602060405180830381600087803b15801561042a57600080fd5b505af115801561043e573d6000803e3d6000fd5b505050506040513d601f19601f820116820180604052508101906104629190610a3f565b506105a8565b600034476104769190610e0e565b9050600061048261094f565b905060008282346104939190610db4565b61049d9190610d83565b9050670de0b6b3a7640000846104b39190610db4565b81106104f4576040517f08c379a00000000000000000000000000000000000000000000000000000000081526004016104eb90610cd6565b60405180910390fd5b60008054906101000a900473ffffffffffffffffffffffffffffffffffffffff1673ffffffffffffffffffffffffffffffffffffffff166323b872dd3330846040518463ffffffff1660e01b815260040161055193929190610c16565b602060405180830381600087803b15801561056b57600080fd5b505af115801561057f573d6000803e3d6000fd5b505050506040513d601f19601f820116820180604052508101906105a39190610a3f565b505050505b50565b600047905090565b60006105bd61094f565b905060006105df670de0b6b3a7640000846105d89190610db4565b8347610756565b905060008054906101000a900473ffffffffffffffffffffffffffffffffffffffff1673ffffffffffffffffffffffffffffffffffffffff166323b872dd3330670de0b6b3a7640000876106339190610db4565b6040518463ffffffff1660e01b815260040161065193929190610c16565b602060405180830381600087803b15801561066b57600080fd5b505af115801561067f573d6000803e3d6000fd5b505050506040513d601f19601f820116820180604052508101906106a39190610a3f565b5060003373ffffffffffffffffffffffffffffffffffffffff16826040516106ca90610be6565b60006040518083038185875af1925050503d8060008114610707576040519150601f19603f3d011682016040523d82523d6000602084013e61070c565b606091505b5050905080610750576040517f08c379a000000000000000000000000000000000000000000000000000000000815260040161074790610c96565b60405180910390fd5b50505050565b60008082856107659190610db4565b9050600085856107759190610d2d565b9050600081116107ba576040517f08c379a00000000000000000000000000000000000000000000000000000000081526004016107b190610cb6565b60405180910390fd5b80826107c69190610d83565b925050509392505050565b60008060009054906101000a900473ffffffffffffffffffffffffffffffffffffffff1673ffffffffffffffffffffffffffffffffffffffff166318160ddd6040518163ffffffff1660e01b815260040160206040518083038186803b15801561083a57600080fd5b505afa15801561084e573d6000803e3d6000fd5b505050506040513d601f19601f820116820180604052508101906108729190610a99565b905090565b600061088161094f565b9050600061089b3434476108959190610e0e565b84610229565b905060008054906101000a900473ffffffffffffffffffffffffffffffffffffffff1673ffffffffffffffffffffffffffffffffffffffff1663a9059cbb33836040518363ffffffff1660e01b81526004016108f8929190610c4d565b602060405180830381600087803b15801561091257600080fd5b505af1158015610926573d6000803e3d6000fd5b505050506040513d601f19601f8201168201806040525081019061094a9190610a3f565b505050565b60008060009054906101000a900473ffffffffffffffffffffffffffffffffffffffff1673ffffffffffffffffffffffffffffffffffffffff166370a08231306040518263ffffffff1660e01b81526004016109ab9190610bfb565b60206040518083038186803b1580156109c357600080fd5b505afa1580156109d7573d6000803e3d6000fd5b505050506040513d601f19601f820116820180604052508101906109fb9190610a99565b905090565b600081519050610a0f81610fe0565b92915050565b600081359050610a2481610ff7565b92915050565b600081519050610a3981610ff7565b92915050565b600060208284031215610a5557610a54610ee8565b5b6000610a6384828501610a00565b91505092915050565b600060208284031215610a8257610a81610ee8565b5b6000610a9084828501610a15565b91505092915050565b600060208284031215610aaf57610aae610ee8565b5b6000610abd84828501610a2a565b91505092915050565b600080600060608486031215610adf57610ade610ee8565b5b6000610aed86828701610a15565b9350506020610afe86828701610a15565b9250506040610b0f86828701610a15565b9150509250925092565b610b2281610e42565b82525050565b6000610b35602483610d1c565b9150610b4082610eed565b604082019050919050565b6000610b58601483610d1c565b9150610b6382610f3c565b602082019050919050565b6000610b7b601f83610d1c565b9150610b8682610f65565b602082019050919050565b6000610b9e600083610d11565b9150610ba982610f8e565b600082019050919050565b6000610bc1602b83610d1c565b9150610bcc82610f91565b604082019050919050565b610be081610e80565b82525050565b6000610bf182610b91565b9150819050919050565b6000602082019050610c106000830184610b19565b92915050565b6000606082019050610c2b6000830186610b19565b610c386020830185610b19565b610c456040830184610bd7565b949350505050565b6000604082019050610c626000830185610b19565b610c6f6020830184610bd7565b9392505050565b60006020820190508181036000830152610c8f81610b28565b9050919050565b60006020820190508181036000830152610caf81610b4b565b9050919050565b60006020820190508181036000830152610ccf81610b6e565b9050919050565b60006020820190508181036000830152610cef81610bb4565b9050919050565b6000602082019050610d0b6000830184610bd7565b92915050565b600081905092915050565b600082825260208201905092915050565b6000610d3882610e80565b9150610d4383610e80565b9250827fffffffffffffffffffffffffffffffffffffffffffffffffffffffffffffffff03821115610d7857610d77610e8a565b5b828201905092915050565b6000610d8e82610e80565b9150610d9983610e80565b925082610da957610da8610eb9565b5b828204905092915050565b6000610dbf82610e80565b9150610dca83610e80565b9250817fffffffffffffffffffffffffffffffffffffffffffffffffffffffffffffffff0483118215151615610e0357610e02610e8a565b5b828202905092915050565b6000610e1982610e80565b9150610e2483610e80565b925082821015610e3757610e36610e8a565b5b828203905092915050565b6000610e4d82610e60565b9050919050565b60008115159050919050565b600073ffffffffffffffffffffffffffffffffffffffff82169050919050565b6000819050919050565b7f4e487b7100000000000000000000000000000000000000000000000000000000600052601160045260246000fd5b7f4e487b7100000000000000000000000000000000000000000000000000000000600052601260045260246000fd5b600080fd5b7f546865206163636f756e7420646f6573206e6f74206861766520616e7920746f60008201527f6b656e7300000000000000000000000000000000000000000000000000000000602082015250565b7f4661696c656420746f2073656e64204574686572000000000000000000000000600082015250565b7f6469766973696f6e206279207a65726f206973206e6f7420616c6c6f77656400600082015250565b50565b7f6e6f7420656e6f75676820746f6b656e732073656e7420666f7220616464696e60008201527f67206c6971756964697479000000000000000000000000000000000000000000602082015250565b610fe981610e54565b8114610ff457600080fd5b50565b61100081610e80565b811461100b57600080fd5b5056fea264697066735822122051e2b8da533a050acd218faf79cc39c47a1d1428e0a336930ee6c9e10dde705f64736f6c63430008070033",
  "immutableReferences": {},
  "source": "// SPDX-License-Identifier: GPL-3.0\n\npragma solidity ^0.8.3;\n\nimport \"@openzeppelin/contracts/token/ERC20/IERC20.sol\";\ncontract Exchange {\n    address private tokenAddress;\n    \n    constructor (address _tokenAddress) {\n        require(_tokenAddress != address(0), \"address(0) cannot be used\");\n        tokenAddress = _tokenAddress;\n    }\n    \n    function getTotalSupplyOfToken() public view returns(uint) {\n        return IERC20(tokenAddress).totalSupply();\n    }\n\n    function getTokenAddress() public view returns(address) {\n        return tokenAddress;\n    }\n    \n    // //approveSpender //approve from outside (through ui)\n    \n    //addLiquidity\n    function addLiquidity(uint _tokenAmount) public payable {\n        //addLiquidity such that 1 ether equals 10000 tokens(in tests or UI)\n        require(IERC20(tokenAddress).balanceOf(msg.sender) > 0, \"The account does not have any tokens\");\n        if(getTokenReserve() == 0) {\n            IERC20(tokenAddress).transferFrom(msg.sender, address(this), _tokenAmount * 10**18);\n        } else {\n            uint ethReserveBefore = address(this).balance - msg.value;\n            uint tokenReserve = getTokenReserve();\n            uint tokenAmountToAdd = msg.value * tokenReserve / ethReserveBefore;\n            require(tokenAmountToAdd < _tokenAmount * 10 ** 18, \"not enough tokens sent for adding liquidity\");\n            IERC20(tokenAddress).transferFrom(msg.sender, address(this), tokenAmountToAdd);\n        }\n        \n    }\n    \n    //getTokenReserve\n    function getTokenReserve() public view returns(uint) {\n        return IERC20(tokenAddress).balanceOf(address(this));\n    }\n    \n    //getEtherReserve\n    function getEtherReserve() public view returns(uint) {\n        return address(this).balance;\n    }\n        \n    //getTokenAmount\n    function getTokenAmount(uint _inputEthAmount, uint EthReserve, uint tokenReserve) public pure returns(uint) {\n        uint numerator = _inputEthAmount * tokenReserve; //eth will be in wei(10**18)\n        uint denominator = EthReserve + _inputEthAmount;\n        require(denominator > 0, \"division by zero is not allowed\");\n        return numerator/denominator;\n    }\n    \n    //getEthAmount\n    function getEtherAmount(uint _inputTokenAmount, uint tokenReserve, uint EthReserve) public pure returns(uint) {\n        uint numerator = _inputTokenAmount * EthReserve;  //token will also be in wei(10**18)\n        uint denominator = tokenReserve + _inputTokenAmount;\n        require(denominator > 0, \"division by zero is not allowed\");\n        return numerator/denominator;\n    }\n\n    //swapEtherForToken\n    function changeEtherToToken() public payable {\n        uint tokenReserve = getTokenReserve();\n        uint amountOfTokens = getTokenAmount(msg.value, address(this).balance - msg.value, tokenReserve);\n        IERC20(tokenAddress).transfer(msg.sender, amountOfTokens);\n    }\n    \n    //swapTokenForEther\n    function changeTokenToEther(uint _inputTokenAmount) public {\n        uint tokenReserve = getTokenReserve();\n        uint amountOfEthers = getEtherAmount(_inputTokenAmount * 10**18, tokenReserve, address(this).balance);\n        \n        IERC20(tokenAddress).transferFrom(msg.sender, address(this), _inputTokenAmount * 10**18);\n        (bool sent, ) = payable(msg.sender).call{value: amountOfEthers}(\"\");\n        require(sent, \"Failed to send Ether\");\n    }\n    \n}",
  "sourcePath": "/Users/np/Desktop/projects/truffle projects/swapProject/contracts/Exchange.sol",
  "compiler": {
    "name": "solc",
    "version": "0.8.7+commit.e28d00a7.Emscripten.clang"
  },
  "schemaVersion": "3.4.3",
  "updatedAt": "2022-12-29T16:44:13.887Z",
  "networkType": "ethereum",
  "devdoc": {
    "kind": "dev",
    "methods": {},
    "version": 1
  },
  "userdoc": {
    "kind": "user",
    "methods": {},
    "version": 1
  }
}